:100000000C942A000C9447000C9447000C94470071
:100010000C9447000C9447000C9447000C948A0FF2
:100020000C9447000C94BD0F0C9447000C944700AF
:100030000C9447000C9447000C9447000C94470024
:100040000C9447000C9447000C9447000C94470014
:100050000C94470011241FBECFE5D8E0DEBFCDBF12
:1000600010E0A8E6B0E001C01D92A438B107E1F7A6
:1000700010E0A0E6B0E0E6E1FDE202C005900D92DE
:10008000A836B107D9F70E943E120C9489160C9439
:100090000000EF92FF920F931F937B018C0120E0F1
:1000A00030E040E05FE40E94490388238CF0C801FF
:1000B000B70120E030E040E05FE40E94C1010E940F
:1000C000A9039B01AC01205030404040504806C07D
:1000D000C801B7010E94A9039B01AC01B901CA0183
:1000E0001F910F91FF90EF900895A0E0B0E0EBE733
:1000F000F0E00C940D16DC012B01FA019C9192307A
:1001000008F439C1EB018881823008F433C194309E
:1001100069F4843009F02FC111969C91119789815F
:10012000981709F428C1A0E6B0E025C1843009F48D
:1001300021C18230A9F4923009F01DC19A01AD01AC
:1001400088E0EA010990AE01E90109929E0181501F
:10015000C1F7E201898111969C918923818308C1AD
:10016000923009F407C112962D903C901397EB0141
:100170008A819B811496AD90BD90CD90DC901797AD
:10018000EC80FD800E811F819101281B390BB90184
:1001900037FF04C066277727621B730B6032710537
:1001A0000CF061C0121613066CF537014801062EDB
:1001B00004C096948794779467940A94D2F721E0C8
:1001C00030E040E050E004C0220F331F441F551FB1
:1001D0006A95D2F721503040404050402E213F21B7
:1001E00040235123211531054105510521F021E01E
:1001F00030E040E050E079018A01E628F72808293C
:1002000019293CC0232BD1F1260E371E350146019A
:10021000062E04C096948794779467940A94D2F734
:1002200021E030E040E050E004C0220F331F441FC3
:10023000551F6A95D2F721503040404050402A2146
:100240003B214C215D21211531054105510521F04E
:1002500021E030E040E050E059016A01A628B728CB
:10026000C828D9280BC0821593052CF01C01AA249C
:10027000BB24650103C0EE24FF24870111969C91E5
:10028000D20111968C91981709F445C0992339F041
:10029000A80197012A193B094C095D0906C0A6016E
:1002A00095012E193F09400B510B57FD08C01182D3
:1002B0003382228224833583468357831DC081E0A5
:1002C00081833382228288279927DC01821B930B4A
:1002D000A40BB50B84839583A683B7830DC0220F2F
:1002E000331F441F551F24833583468357838281E0
:1002F000938101979383828324813581468157813D
:10030000DA01C9010197A109B1098F5F9F4FAF4F72
:10031000BF4328F30BC0918333822282EA0CFB1C7B
:100320000C1D1D1DE482F5820683178383E0808304
:10033000248135814681578157FF1AC0C901AA27F8
:1003400097FDA095BA2F81709070A070B0705695EF
:10035000479537952795822B932BA42BB52B848318
:100360009583A683B7838281938101969383828349
:10037000DF0101C0D201CD01CDB7DEB7E2E10C94BF
:100380002916A0E2B0E0E7ECF1E00C9419166983BD
:100390007A838B839C832D833E834F835887E9E048
:1003A000EE2EF12CEC0EFD1ECE010196B7010E943F
:1003B000D2048E010F5E1F4FCE010596B8010E9438
:1003C000D2048A8991E089278A8BC701B801AE01DE
:1003D000475E5F4F0E9475000E94FD03A096E6E015
:1003E0000C943516A0E2B0E0E8EFF1E00C94191699
:1003F00069837A838B839C832D833E834F835887C5
:10040000F9E0EF2EF12CEC0EFD1ECE010196B701A6
:100410000E94D2048E010F5E1F4FCE010596B801D7
:100420000E94D204C701B801AE01475E5F4F0E942F
:1004300075000E94FD03A096E6E00C943516A0E23C
:10044000B0E0E5E2F2E00C940D1669837A838B83C9
:100450009C832D833E834F835887CE010196BE0136
:10046000675F7F4F0E94D204CE010596BE016F5E8A
:100470007F4F0E94D2049985923088F0898982301A
:10048000C8F0943019F4823051F404C0843029F457
:10049000923081F480E690E0C6C0923049F420E0CA
:1004A0009A858A89981321E02A87CE010996BBC0D4
:1004B000823049F420E09A858A89981321E02A8BBA
:1004C000CE014196B0C02D843E844F8458886D88FB
:1004D0007E888F88988CEE24FF248701AA24BB2471
:1004E000650140E050E060E070E0E0E0F0E0C10174
:1004F00081709070892BE9F0E60CF71C081D191D1E
:100500009A01AB012A0D3B1D4C1D5D1D80E090E062
:10051000A0E0B0E0E614F7040805190520F481E036
:1005200090E0A0E0B0E0BA01A901480F591F6A1F8E
:100530007B1FAA0CBB1CCC1CDD1C97FE08C081E0F5
:1005400090E0A0E0B0E0A82AB92ACA2ADB2A3196B6
:10055000E032F10549F0660C771C881C991C569412
:10056000479437942794C3CFFA85EA892B893C892D
:100570008B859C85280F391F2E5F3F4F17C0CA01FE
:1005800081709070892B61F016950795F794E79428
:1005900080E090E0A0E0B0E8E82AF92A0A2B1B2BC3
:1005A00076956795579547952F5F3F4F77FDE7CF36
:1005B0000CC0440F551F661F771F17FD4160EE0CDE
:1005C000FF1C001F111F21503040403090E05907A0
:1005D00090E0690790E4790760F32B8F3C8FDB0193
:1005E000CA018F779070A070B07080349105A1051A
:1005F000B10561F447FD0AC0E114F10401051105DC
:1006000029F0405C5F4F6F4F7F4F40781A8EFE1786
:1006100011F081E08A8F4D8F5E8F6F8F78A383E01A
:10062000898FCE0149960E94FD03A096E2E10C94C9
:100630002916A8E1B0E0EFE1F3E00C941916698304
:100640007A838B839C832D833E834F83588789E0F5
:10065000E82EF12CEC0EFD1ECE010196B7010E9492
:10066000D2048E010F5E1F4FCE010596B8010E9485
:10067000D2048985823040F08989823028F0C70110
:10068000B8010E944A0501C08FEF6896E6E00C941D
:100690003516A8E1B0E0EFE4F3E00C941916698395
:1006A0007A838B839C832D833E834F83588789E095
:1006B000E82EF12CEC0EFD1ECE010196B7010E9432
:1006C000D2048E010F5E1F4FCE010596B8010E9425
:1006D000D2048985823040F08989823028F0C701B0
:1006E000B8010E944A0501C08FEF6896E6E00C94BD
:1006F0003516A8E1B0E0EFE7F3E00C941916698332
:100700007A838B839C832D833E834F83588789E034
:10071000E82EF12CEC0EFD1ECE010196B7010E94D1
:10072000D2048E010F5E1F4FCE010596B8010E94C4
:10073000D2048985823040F08989823028F0C7014F
:10074000B8010E944A0501C081E06896E6E00C9479
:100750003516ACE0B0E0EFEAF3E00C941D166983C7
:100760007A838B839C83CE010196BE016B5F7F4FA2
:100770000E94D2048D81823061F1823050F1843048
:1007800021F48E81882351F12EC02F81388537FDC9
:1007900020C06E812F3131051CF06623F9F023C093
:1007A0008EE190E0821B930B29853A854B855C8511
:1007B00004C056954795379527958A95D2F76623B5
:1007C000B1F050954095309521953F4F4F4F5F4F79
:1007D0000EC020E030E040E050E009C02FEF3FEFD6
:1007E0004FEF5FE704C020E030E040E050E8B9019F
:1007F000CA012C96E2E00C943916DF92EF92FF9238
:100800000F931F93FC01E480F58006811781D1804E
:100810008081823048F480E090E0A0E1B0E0E82AF6
:10082000F92A0A2B1B2BA5C0843009F49FC0823003
:1008300021F4EE24FF24870105C0E114F104010531
:10084000110519F4E0E0F0E096C0628173819FEF3A
:10085000623879070CF05BC022E83FEF261B370BAC
:100860002A3131052CF020E030E040E050E02AC091
:10087000B801A701022E04C0769567955795479554
:100880000A94D2F781E090E0A0E0B0E004C0880FC5
:10089000991FAA1FBB1F2A95D2F70197A109B10979
:1008A0008E219F21A023B1230097A105B10521F03E
:1008B00081E090E0A0E0B0E09A01AB01282B392B59
:1008C0004A2B5B2BDA01C9018F779070A070B07052
:1008D00080349105A105B10539F427FF09C0205CDA
:1008E0003F4F4F4F5F4F04C0215C3F4F4F4F5F4F13
:1008F000E0E0F0E02030A0E03A07A0E04A07A0E402
:100900005A0710F0E1E0F0E079018A0127C0603871
:10091000710564F5FB01E158FF4FD801C7018F77DE
:100920009070A070B07080349105A105B10539F4C4
:10093000E7FE0DC080E490E0A0E0B0E004C08FE3EB
:1009400090E0A0E0B0E0E80EF91E0A1F1B1F17FFA1
:1009500005C016950795F794E794319687E01695AC
:100960000795F794E7948A95D1F705C0EE24FF2404
:100970008701EFEFF0E06E2F679566276795902F60
:100980009F77D794DD24D7948E2F8695492F462BB9
:10099000582F5D29B701CA011F910F91FF90EF9069
:1009A000DF900895FC01DB01408151812281622F9B
:1009B0006F7770E0221F2227221F9381892F880FD3
:1009C000822B282F30E0991F9927991F11969C930D
:1009D000119721153105A9F54115510561057105DD
:1009E00011F482E037C082E89FEF13969C938E93B8
:1009F00012979A01AB0167E0220F331F441F551F66
:100A00006A95D1F783E08C930DC0220F331F441FEA
:100A1000551F12968D919C911397019713969C9355
:100A20008E931297203080E0380780E0480780E4FA
:100A3000580758F314962D933D934D935C93179755
:100A400008952F3F310579F4411551056105710570
:100A500019F484E08C93089564FF03C081E08C93C3
:100A600012C01C9210C02F57304013963C932E9307
:100A7000129783E08C9387E0440F551F661F771F02
:100A80008A95D1F7706414964D935D936D937C9322
:100A9000179708951F93DC01FB019C91923008F495
:100AA00047C08081823008F443C0943051F41196DD
:100AB0001C91843099F58181682F70E0611B710968
:100AC0003FC0843021F0923031F48230B9F181811D
:100AD000882389F12DC011961C9111978230F1F075
:100AE00081811817D9F412962D913C911397828128
:100AF00093818217930794F028173907BCF0149656
:100B00008D919D910D90BC91A02D248135814681C0
:100B10005781281739074A075B0718F4112341F05A
:100B20000AC082179307A407B50740F4112319F0F0
:100B300061E070E005C06FEF7FEF02C060E070E041
:100B4000CB011F910895DF93CF93CDB7DEB781E03E
:100B500066E041E00E944C0C81E066E040E00E94CB
:100B6000370DCF91DF910895DF93CF93CDB7DEB7E7
:100B700081E066E041E00E94370DCF91DF9108955A
:100B8000DF93CF93CDB7DEB781E066E040E00E940F
:100B9000370DCF91DF910895DF93CF93CDB7DEB7B7
:100BA00081E060E041E00E944C0C81E061E041E0C6
:100BB0000E944C0C81E060E040E00E94370D81E033
:100BC00061E040E00E94370DCF91DF910895DF93FF
:100BD000CF9300D000D0CDB7DEB789836A838981F7
:100BE000282F30E03C832B838B819C8181309105C1
:100BF000A1F02B813C8122303105D1F08B819C8189
:100C0000009701F581E060E041E00E94370D81E04E
:100C100061E040E00E94370D15C081E060E040E0F7
:100C20000E94370D81E061E041E00E94370D0AC06B
:100C300081E060E040E00E94370D81E061E040E04B
:100C40000E94370D8A810E942C060F900F900F9002
:100C50000F90CF91DF910895DF93CF930F92CDB78F
:100C6000DEB78983E2E5F0E01082ECE5F0E089810F
:100C70008083A7E3B0E0E7E3F0E0808188608C93B5
:100C8000E3E5F0E08AE680830F90CF91DF9108954D
:100C9000DF93CF9300D000D0CDB7DEB79A8389839E
:100CA0006B830E9492100E94EA10883011F01C821F
:100CB00028C089819A8180709770880F892F881F3A
:100CC000990B9195806A0E94AD100E94EA108831BC
:100CD00011F01C8216C089810E94AD100E94EA109A
:100CE000883211F01C820DC08B810E94AD100E94D1
:100CF000EA10883211F01C8204C00E94A21081E028
:100D00008C838C810F900F900F900F90CF91DF917B
:100D10000895DF93CF9300D000D00F92CDB7DEB708
:100D20009A8389837C836B830E9492100E94EA10CD
:100D3000883011F01D8244C089819A81807097703B
:100D4000880F892F881F990B9195806A0E94AD109A
:100D50000E94EA10883111F01D8232C089810E9400
:100D6000AD100E94EA10883211F01D8229C00E9445
:100D700092100E94EA10803111F01D8221C08981F9
:100D80009A8180709770880F892F881F990B919591
:100D9000816A0E94AD100E94EA10803411F01D8219
:100DA0000FC00E94D710EB81FC8180830E94EA1063
:100DB000883511F01D8204C00E94A21081E08D834D
:100DC0008D810F900F900F900F900F90CF91DF912A
:100DD0000895DF93CF93CDB7DEB72E970FB6F89473
:100DE000DEBF0FBECDBF81E062E041E00E944C0C4F
:100DF00081E064E041E00E944C0C80E090E0A0EAD9
:100E0000B1E48B879C87AD87BE876B857C858D859C
:100E10009E8520E030E04AEF54E40E941F02DC018E
:100E2000CB018F839887A987BA876F817885898559
:100E30009A8520E030E040E85FE30E947903882350
:100E40002CF481E090E09E838D833FC06F81788594
:100E500089859A8520E03FEF4FE757E40E94190308
:100E600018164CF56B857C858D859E8520E030E0DD
:100E700040E251E40E941F02DC01CB01BC01CD0124
:100E80000E944900DC01CB019E838D830FC088EC5A
:100E900090E09C838B838B819C810197F1F79C83ED
:100EA0008B838D819E8101979E838D838D819E8111
:100EB000009769F714C06F81788589859A850E94AB
:100EC0004900DC01CB019E838D838D819E819A83B5
:100ED000898389819A810197F1F79A83898380E0D8
:100EE0006FEF0E94BD0E88E30E9485078CE00E9490
:100EF000850781E00E9485072E960FB6F894DEBF25
:100F00000FBECDBFCF91DF910895DF93CF93CDB7C3
:100F1000DEB7E9970FB6F894DEBF0FBECDBF89AF3D
:100F200081E062E040E00E94370D80E090E0A0E8C0
:100F3000BFE38DAB9EABAFABB8AF6DA97EA98FA958
:100F400098AD20E030E04AEF54E40E941F02DC013B
:100F5000CB0189AB9AABABABBCAB69A97AA98BA926
:100F60009CA920E030E040E85FE30E9479038823F9
:100F70002CF481E090E098AB8FA73FC069A97AA9D3
:100F80008BA99CA920E03FEF4FE757E40E9419038B
:100F900018164CF56DA97EA98FA998AD20E030E018
:100FA00040E251E40E941F02DC01CB01BC01CD01F3
:100FB0000E944900DC01CB0198AB8FA70FC088ECE1
:100FC00090E09EA78DA78DA59EA50197F1F79EA7FE
:100FD0008DA78FA598A9019798AB8FA78FA598A9E2
:100FE000009769F714C069A97AA98BA99CA90E94E6
:100FF0004900DC01CB0198AB8FA78FA598A99CA7CE
:101000008BA78BA59CA50197F1F79CA78BA781E0E7
:1010100064E041E00E94370D80E090E0A0E8BFE38B
:101020008FA398A7A9A7BAA76FA178A589A59AA504
:1010300020E030E04AEF54E40E941F02DC01CB01C3
:101040008BA39CA3ADA3BEA36BA17CA18DA19EA1EC
:1010500020E030E040E85FE30E94790388232CF42D
:1010600081E090E09AA389A33FC06BA17CA18DA1F0
:101070009EA120E03FEF4FE757E40E9419031816A6
:101080004CF56FA178A589A59AA520E030E040E253
:1010900051E40E941F02DC01CB01BC01CD010E9482
:1010A0004900DC01CB019AA389A30FC088EC90E032
:1010B00098A38F8F8F8D98A10197F1F798A38F8FA9
:1010C00089A19AA101979AA389A389A19AA10097BE
:1010D00069F714C06BA17CA18DA19EA10E9449005B
:1010E000DC01CB019AA389A389A19AA19E8F8D8F40
:1010F0008D8D9E8D0197F1F79E8F8D8F80E069AD6C
:101100000E94010F80E090E0A0E8BFE3898F9A8FF2
:10111000AB8FBC8F698D7A8D8B8D9C8D20E030E0FC
:101120004AEF54E40E941F02DC01CB018D8B9E8BA1
:10113000AF8BB88F6D897E898F89988D20E030E0E4
:1011400040E85FE30E94790388232CF481E090E07B
:101150009C8B8B8B3FC06D897E898F89988D20E019
:101160003FEF4FE757E40E94190318164CF5698DBD
:101170007A8D8B8D9C8D20E030E040E251E40E941E
:101180001F02DC01CB01BC01CD010E944900DC0142
:10119000CB019C8B8B8B0FC088EC90E09A8B898B5A
:1011A00089899A890197F1F79A8B898B8B899C8918
:1011B00001979C8B8B8B8B899C89009769F714C056
:1011C0006D897E898F89988D0E944900DC01CB0151
:1011D0009C8B8B8B8B899C89988B8F878F8598892B
:1011E0000197F1F7988B8F8781E064E040E00E94DF
:1011F000370D80E090E0A0E8BFE38B879C87AD8748
:10120000BE876B857C858D859E8520E030E04AEF2A
:1012100054E40E941F02DC01CB018F839887A987C9
:10122000BA876F81788589859A8520E030E040E82B
:101230005FE30E94790388232CF481E090E09E8391
:101240008D833FC06F81788589859A8520E03FEF47
:101250004FE757E40E94190318164CF56B857C85FF
:101260008D859E8520E030E040E251E40E941F021F
:10127000DC01CB01BC01CD010E944900DC01CB01A6
:101280009E838D830FC088EC90E09C838B838B8141
:101290009C810197F1F79C838B838D819E810197BF
:1012A0009E838D838D819E81009769F714C06F8125
:1012B000788589859A850E944900DC01CB019E834F
:1012C0008D838D819E819A83898389819A810197FB
:1012D000F1F79A838983E9960FB6F894DEBF0FBEC3
:1012E000CDBFCF91DF910895DF93CF93CDB7DEB718
:1012F000E9970FB6F894DEBF0FBECDBF89AF81E08E
:1013000062E041E00E94370D80E090E0A0E8BFE39A
:101310008DAB9EABAFABB8AF6DA97EA98FA998ADD1
:1013200020E030E04AEF54E40E941F02DC01CB01D0
:1013300089AB9AABABABBCAB69A97AA98BA99CA9C9
:1013400020E030E040E85FE30E94790388232CF43A
:1013500081E090E098AB8FA73FC069A97AA98BA9DB
:101360009CA920E03FEF4FE757E40E9419031816AD
:101370004CF56DA97EA98FA998AD20E030E040E240
:1013800051E40E941F02DC01CB01BC01CD010E948F
:101390004900DC01CB0198AB8FA70FC088EC90E02F
:1013A0009EA78DA78DA59EA50197F1F79EA78DA756
:1013B0008FA598A9019798AB8FA78FA598A900979B
:1013C00069F714C069A97AA98BA99CA90E94490050
:1013D000DC01CB0198AB8FA78FA598A99CA78BA701
:1013E0008BA59CA50197F1F79CA78BA781E064E0F2
:1013F00041E00E94370D80E090E0A0E8BFE38FA3BA
:1014000098A7A9A7BAA76FA178A589A59AA520E052
:1014100030E04AEF54E40E941F02DC01CB018BA3B1
:101420009CA3ADA3BEA36BA17CA18DA19EA120E036
:1014300030E040E85FE30E94790388232CF481E0E8
:1014400090E09AA389A33FC06BA17CA18DA19EA12E
:1014500020E03FEF4FE757E40E94190318164CF5C0
:101460006FA178A589A59AA520E030E040E251E47B
:101470000E941F02DC01CB01BC01CD010E9449008A
:10148000DC01CB019AA389A30FC088EC90E098A35C
:101490008F8F8F8D98A10197F1F798A38F8F89A1D6
:1014A0009AA101979AA389A389A19AA1009769F7A4
:1014B00014C06BA17CA18DA19EA10E944900DC01FA
:1014C000CB019AA389A389A19AA19E8F8D8F8D8D1F
:1014D0009E8D0197F1F79E8F8D8F80E069AD0E9400
:1014E000010F80E090E0A0E8BFE3898F9A8FAB8F77
:1014F000BC8F698D7A8D8B8D9C8D20E030E04AEF1A
:1015000054E40E941F02DC01CB018D8B9E8BAF8BBC
:10151000B88F6D897E898F89988D20E030E040E812
:101520005FE30E94790388232CF481E090E09C8B98
:101530008B8B3FC06D897E898F89988D20E03FEF2E
:101540004FE757E40E94190318164CF5698D7A8D00
:101550008B8D9C8D20E030E040E251E40E941F0220
:10156000DC01CB01BC01CD010E944900DC01CB01B3
:101570009C8B8B8B0FC088EC90E09A8B898B898930
:101580009A890197F1F79A8B898B8B899C890197AE
:101590009C8B8B8B8B899C89009769F714C06D8914
:1015A0007E898F89988D0E944900DC01CB019C8B3C
:1015B0008B8B8B899C89988B8F878F8598890197D6
:1015C000F1F7988B8F8781E064E040E00E94370D4F
:1015D00080E090E0A0E8BFE38B879C87AD87BE8763
:1015E0006B857C858D859E8520E030E04AEF54E454
:1015F0000E941F02DC01CB018F839887A987BA87DD
:101600006F81788589859A8520E030E040E85FE346
:101610000E94790388232CF481E090E09E838D83DF
:101620003FC06F81788589859A8520E03FEF4FE73D
:1016300057E40E94190318164CF56B857C858D853F
:101640009E8520E030E040E251E40E941F02DC0170
:10165000CB01BC01CD010E944900DC01CB019E837E
:101660008D830FC088EC90E09C838B838B819C8161
:101670000197F1F79C838B838D819E8101979E83D7
:101680008D838D819E81009769F714C06F81788565
:1016900089859A850E944900DC01CB019E838D8358
:1016A0008D819E819A83898389819A810197F1F73F
:1016B0009A838983E9960FB6F894DEBF0FBECDBF3B
:1016C000CF91DF910895DF93CF9300D00F92CDB7E4
:1016D000DEB79B838A8319820EC08981282F30E070
:1016E0008A819B81FC01E20FF31F80810E947409B3
:1016F00089818F5F89838981282F30E08A819B814E
:10170000FC01E20FF31F8081882339F70F900F90BF
:101710000F90CF91DF910895DF93CF9300D000D049
:101720000F92CDB7DEB78A836B838A81282F30E092
:101730003D832C838C819D8181309105C1F02C816A
:101740003D81223031052CF48C819D81009761F020
:1017500019C02C813D812230310569F08C819D8139
:101760008330910561F00EC08B8189830BC08B8122
:10177000805C898307C08B81805F898303C08B81F4
:10178000805B8983898180680E9485070F900F9014
:101790000F900F900F90CF91DF910895DF93CF932B
:1017A00000D000D0CDB7DEB789836A835C834B83DA
:1017B00089816A810E948C0B8B819C810E94630BC2
:1017C0000F900F900F900F90CF91DF910895DF93BE
:1017D000CF93CDB7DEB762970FB6F894DEBF0FBEDA
:1017E000CDBF9A8B898B89899A899E012F5F3F4F44
:1017F000B9014AE050E00E944416CE0101960E94D1
:10180000630B62960FB6F894DEBF0FBECDBFCF91CB
:10181000DF910895DF93CF93CDB7DEB781E00E94CB
:101820008507CF91DF910895DF93CF9300D0CDB797
:10183000DEB7898303C08CE10E94850789818A8392
:101840008A81882311F081E08A838A81998191506D
:101850009983882381F70F900F90CF91DF9108959E
:10186000DF93CF9300D0CDB7DEB7898303C088E183
:101870000E94850789818A838A81882311F081E00B
:101880008A838A81998191509983882381F70F9067
:101890000F90CF91DF910895DF93CF9300D000D0C8
:1018A0000F92CDB7DEB789836A834B838A818830F4
:1018B00008F0D5C08981843008F0D1C08981282FF3
:1018C00030E03D832C838C819D818130910509F42A
:1018D00043C02C813D81223031052CF48C819D81C7
:1018E000009771F0BCC02C813D812230310509F494
:1018F0005FC08C819D818330910509F485C0AFC0A4
:101900008B818130A1F4AAE3B0E0EAE3F0E08081CA
:10191000482F8A81282F30E081E090E0022E02C01B
:10192000880F991F0A94E2F7842B8C9398C0AAE33E
:10193000B0E0EAE3F0E08081482F8A81282F30E090
:1019400081E090E0022E02C0880F991F0A94E2F70E
:10195000809584238C9383C08B818130A1F4A7E38D
:10196000B0E0E7E3F0E08081482F8A81282F30E063
:1019700081E090E0022E02C0880F991F0A94E2F7DE
:10198000842B8C936CC0A7E3B0E0E7E3F0E08081A8
:10199000482F8A81282F30E081E090E0022E02C09B
:1019A000880F991F0A94E2F7809584238C9357C07F
:1019B0008B818130A1F4A4E3B0E0E4E3F0E0808126
:1019C000482F8A81282F30E081E090E0022E02C06B
:1019D000880F991F0A94E2F7842B8C9340C0A4E3EC
:1019E000B0E0E4E3F0E08081482F8A81282F30E0E6
:1019F00081E090E0022E02C0880F991F0A94E2F75E
:101A0000809584238C932BC08B818130A1F4A1E33A
:101A1000B0E0E1E3F0E08081482F8A81282F30E0B8
:101A200081E090E0022E02C0880F991F0A94E2F72D
:101A3000842B8C9314C0A1E3B0E0E1E3F0E080815B
:101A4000482F8A81282F30E081E090E0022E02C0EA
:101A5000880F991F0A94E2F7809584238C930F9046
:101A60000F900F900F900F90CF91DF910895DF931B
:101A7000CF9300D000D00F92CDB7DEB789836A83B1
:101A80004B838A81883008F0D5C08981843008F082
:101A9000D1C08981282F30E03D832C838C819D81AA
:101AA0008130910509F443C02C813D8122303105FC
:101AB0002CF48C819D81009771F0BCC02C813D81FC
:101AC0002230310509F45FC08C819D8183309105FE
:101AD00009F485C0AFC08B818130A1F4ABE3B0E0E5
:101AE000EBE3F0E08081482F8A81282F30E081E00D
:101AF00090E0022E02C0880F991F0A94E2F7842B0F
:101B00008C9398C0ABE3B0E0EBE3F0E08081482F2A
:101B10008A81282F30E081E090E0022E02C0880FF9
:101B2000991F0A94E2F7809584238C9383C08B815C
:101B30008130A1F4A8E3B0E0E8E3F0E08081482F31
:101B40008A81282F30E081E090E0022E02C0880FC9
:101B5000991F0A94E2F7842B8C936CC0A8E3B0E041
:101B6000E8E3F0E08081482F8A81282F30E081E08F
:101B700090E0022E02C0880F991F0A94E2F7809528
:101B800084238C9357C08B818130A1F4A5E3B0E00E
:101B9000E5E3F0E08081482F8A81282F30E081E062
:101BA00090E0022E02C0880F991F0A94E2F7842B5E
:101BB0008C9340C0A5E3B0E0E5E3F0E08081482FDE
:101BC0008A81282F30E081E090E0022E02C0880F49
:101BD000991F0A94E2F7809584238C932BC08B8104
:101BE0008130A1F4A2E3B0E0E2E3F0E08081482F8D
:101BF0008A81282F30E081E090E0022E02C0880F19
:101C0000991F0A94E2F7842B8C9314C0A2E3B0E0EE
:101C1000E2E3F0E08081482F8A81282F30E081E0E4
:101C200090E0022E02C0880F991F0A94E2F7809577
:101C300084238C930F900F900F900F900F90CF9163
:101C4000DF910895DF93CF9300D000D00F92CDB7EE
:101C5000DEB78A836B8319828B81883008F084C059
:101C60008A81843008F080C08A81282F30E03D834B
:101C70002C834C815D814130510579F18C819D81AE
:101C80008230910534F42C813D812115310569F0B4
:101C90006BC04C815D8142305105B9F18C819D81D1
:101CA0008330910509F449C05FC0E9E3F0E0808129
:101CB000282F30E08B81882F90E0A90102C0559534
:101CC00047958A95E2F7CA0181709070882319F0D0
:101CD00081E0898349C0198247C0E6E3F0E0808152
:101CE000282F30E08B81882F90E0A90102C0559504
:101CF00047958A95E2F7CA0181709070882319F0A0
:101D000081E0898331C019822FC0E3E3F0E0808154
:101D1000282F30E08B81882F90E0A90102C05595D3
:101D200047958A95E2F7CA0181709070882319F06F
:101D300081E0898319C0198217C0E0E3F0E0808157
:101D4000282F30E08B81882F90E0A90102C05595A3
:101D500047958A95E2F7CA0181709070882319F03F
:101D600081E0898301C0198289810F900F900F90C3
:101D70000F900F90CF91DF910895DF93CF9300D014
:101D800000D0CDB7DEB789836A838981843090F52E
:101D90008981282F30E03C832B838B819C8181308B
:101DA0009105D1F02B813C81223031052CF48B81BF
:101DB0009C81009761F01EC02B813C81223031054F
:101DC00081F08B819C818330910581F013C0EAE31F
:101DD000F0E08A8180830EC0E7E3F0E08A818083AF
:101DE00009C0E4E3F0E08A81808304C0E1E3F0E02D
:101DF0008A8180830F900F900F900F90CF91DF9189
:101E00000895DF93CF9300D000D0CDB7DEB789839C
:101E10006A838981843090F58981282F30E03C8362
:101E20002B838B819C8181309105D1F02B813C816A
:101E3000223031052CF48B819C81009761F01EC00B
:101E40002B813C812230310581F08B819C81833054
:101E5000910581F013C0EBE3F0E08A8180830EC02E
:101E6000E8E3F0E08A81808309C0E5E3F0E08A815D
:101E7000808304C0E2E3F0E08A8180830F900F90BA
:101E80000F900F90CF91DF910895DF93CF9300D003
:101E900000D0CDB7DEB78A8319828A81843090F56D
:101EA0008A81282F30E03C832B838B819C81813079
:101EB0009105D1F02B813C81223031052CF48B81AE
:101EC0009C81009761F01EC02B813C81223031053E
:101ED00081F08B819C818330910581F013C0E9E30F
:101EE000F0E0808189830EC0E6E3F0E080818983A1
:101EF00009C0E3E3F0E08081898304C0E0E3F0E01F
:101F00008081898389810F900F900F900F90CF91DE
:101F1000DF9108951F920F920FB60F9211242F9305
:101F20003F934F935F936F937F938F939F93AF9361
:101F3000BF93EF93FF93DF93CF93CDB7DEB780913D
:101F4000680090916900009729F0E0916800F09195
:101F500069000995CF91DF91FF91EF91BF91AF910A
:101F60009F918F917F916F915F914F913F912F91B1
:101F70000F900FBE0F901F9018951F920F920FB6E3
:101F80000F9211242F933F934F935F936F937F93FF
:101F90008F939F93AF93BF93EF93FF93DF93CF9371
:101FA000CDB7DEB78091680090916900009729F065
:101FB000E0916800F09169000995CF91DF91FF9160
:101FC000EF91BF91AF919F918F917F916F915F91B1
:101FD0004F913F912F910F900FBE0F901F9018952A
:101FE000DF93CF9300D0CDB7DEB79A838983EFE438
:101FF000F0E01082EEE4F0E01082AEE4B0E0EEE457
:10200000F0E09081E981FA818481892B8C93ACE4A2
:10201000B0E0E981FA818081918111969C938E9341
:10202000E981FA8185818430C1F4AEE4B0E0EEE468
:10203000F0E0808188608C93AAE4B0E0E981FA81C5
:102040008281938111969C938E93A9E5B0E0E9E596
:10205000F0E0808180618C9307C0A9E5B0E0E9E5FC
:10206000F0E0808184608C930F900F90CF91DF918E
:102070000895DF93CF93CDB7DEB7EFE4F0E01082A1
:10208000EEE4F0E01082ECE4F0E011821082EAE489
:10209000F0E011821082A9E5B0E0E9E5F0E080818E
:1020A0008B7E8C931092690010926800CF91DF9123
:1020B0000895DF93CF9300D0CDB7DEB79A8389839D
:1020C00089819A8190936900809368000F900F90A6
:1020D000CF91DF910895DF93CF9300D0CDB7DEB7D6
:1020E0009A838983E0E2F0E082E08083A1E2B0E0BD
:1020F000E1E2F0E08081982FE981FA8181818370AB
:10210000892B8C93A2E2B0E0E981FA818081880F6B
:102110008C93E6E5F0E084E080830F900F90CF9100
:10212000DF910895DF93CF93CDB7DEB7E6E5F0E01A
:1021300084EA8083E6E5F0E080818823DCF7CF91B4
:10214000DF910895DF93CF93CDB7DEB7E6E5F0E0FA
:1021500084E98083CF91DF910895DF93CF930F922D
:10216000CDB7DEB78983E3E2F0E089818083E6E5DD
:10217000F0E084E88083E6E5F0E080818823DCF706
:102180000F90CF91DF910895DF93CF93CDB7DEB756
:10219000E6E5F0E084EC8083E6E5F0E080818823EA
:1021A000DCF7E3E2F0E08081CF91DF910895DF93E7
:1021B000CF93CDB7DEB7E6E5F0E084E88083E6E5CF
:1021C000F0E080818823DCF7E3E2F0E08081CF91CA
:1021D000DF910895DF93CF930F92CDB7DEB7E1E2A1
:1021E000F0E08081887F898389810F90CF91DF9192
:1021F0000895DF93CF9300D000D00F92CDB7DEB714
:102200009D838C831B821A8288E08983ABE2B0E0D5
:10221000EC81FD818085880F8C93EAE2F0E088E113
:102220008083A0E4B0E0EC81FD818781882F90E07D
:102230000024969587950794969587950794982FEF
:10224000802D282FEC81FD818281882F90E0880FDE
:10225000991F880F991F880F991F282BEC81FD81EA
:102260008181882F90E082959295907F9827807F3A
:102270009827822B80688C93EC81FD818081873048
:10228000C1F4A0E4B0E0E0E4F0E08081282FEC812C
:10229000FD818081882F90E0880F991F8670822BA6
:1022A0008C93AAE2B0E0EAE2F0E0808184608C9353
:1022B00010C0A0E4B0E0E0E4F0E08081282FEC81E1
:1022C000FD818081882F90E0880F991F8670822B76
:1022D0008C93EC81FD818781882359F4EC81FD8109
:1022E0008085882319F480E1898305C088E089838B
:1022F00002C082E08983EC81FD8183819481A58184
:10230000B6812981222F30E040E050E0BC01CD01B0
:102310000E94CC159B01AC0180E092E1AAE7B0E0FD
:10232000BC01CD010E94EB15DA01C90101979B8325
:102330008A83E0E4F0E08A819B81892F992780835A
:10234000E9E2F0E08A8180830F900F900F900F9068
:102350000F90CF91DF910895DF93CF930F92CDB778
:10236000DEB78983EBE2F0E08081882F90E0807215
:1023700090700097B9F3ECE2F0E0898180830F90D0
:10238000CF91DF910895DF93CF93CDB7DEB7EBE226
:10239000F0E080818823DCF7ECE2F0E08081CF91EF
:1023A000DF910895DF93CF9300D00F92CDB7DEB7C2
:1023B0009B838A8319820EC08981282F30E08A810D
:1023C0009B81FC01E20FF31F80810E94AC11898187
:1023D0008F5F89838981282F30E08A819B81FC016E
:1023E000E20FF31F8081882339F70F900F900F9031
:1023F000CF91DF9108950F931F93DF93CF9300D078
:102400000F92CDB7DEB79B838A8319828981282FEB
:1024100030E08A819B818C01020F131F0E94C3113F
:10242000F80180830FC089818F5F89838981282F7C
:1024300030E08A819B818C01020F131F0E94C3111F
:10244000F80180838981282F30E08A819B81FC01FB
:10245000E20FF31F8081833231F78981282F30E02A
:102460008A819B81FC01E20FF31F10820F900F9075
:102470000F90CF91DF911F910F910895DF93CF932C
:10248000CDB7DEB72C970FB6F894DEBF0FBECDBF29
:1024900080E895E2A0E0B0E08D839E83AF83B887AB
:1024A00083E08A831B821C82198681E08A87CE01A1
:1024B00002960E94F9101C8681E08B87CE010B9654
:1024C0000E946B1084E08093830084E080938200FC
:1024D00010927F0010927E0082E19AE79093810033
:1024E000809380000E94A3050E94CC05AFE5B0E078
:1024F000EFE5F0E0808180688C938AE690E00E94AE
:1025000077158EE690E00E94771520916A00309151
:102510006B0040916C0050916D0080916E00909125
:102520006F00A0917000B0917100281739074A0719
:102530005B07B1F482E080937C0080917C000E9474
:10254000AC1120916A0030916B0040916C00509169
:102550006D0081E193E0BA01A9010E94701306C0E9
:1025600010927C0080917C000E94AC1180917C00D4
:10257000882319F20E94C311898310927D00109262
:1025800072001092730010927400109275001092F5
:10259000760010927700109278001092790082E70E
:1025A00090E00E94771526E730E081E193E0B901E1
:1025B0000E942614209172003091730040917400A3
:1025C000509175008091760090917700A0917800ED
:1025D000B0917900281739074A075B0721F485E095
:1025E0000E94AC110EC080917D008F5F80937D00B2
:1025F00080917D000E94AC1180917D00833008F4B1
:10260000BECF80917D008330C1F40E94B4058CE37D
:1026100080937A0010927B0087EB95E10E9459101D
:102620008EE790E00E94F00F90917B0080917A00FD
:102630009817D0F30E94C0059DCF89818B3209F095
:102640004AC08FE080937A0010927B0087EB95E17F
:102650000E9459108EE790E00E94F00F80E068EC35
:102660000E94E70590917B0080917A009817D0F343
:1026700083E080937A0010927B0087EB95E10E94C3
:1026800059108EE790E00E94F00F80E060E00E9419
:10269000E70590917B0080917A009817D0F38FE046
:1026A00080937A0010927B0087EB95E10E9459108D
:1026B0008EE790E00E94F00F81E068EC0E94E70551
:1026C00090917B0080917A009817D0F382E060E0CF
:1026D0000E94E7054FCF89818D3209F40ECF4ACF92
:1026E000DF93CF93CDB7DEB765970FB6F894DEBF13
:1026F0000FBECDBF998B888B4A8B5B8B6C8B7D8B90
:102700001F8697C08F85282F30E088899989A90175
:10271000480F591F8F85882F90E09C01220F331F8F
:10272000220F331F220F331F8A899B89AC89BD89F1
:1027300004C0B695A795979587952A95D2F7282F27
:10274000CA01622F0E94480680E090E0A0E2B1E456
:102750008B879C87AD87BE876B857C858D859E85A5
:1027600020E030E04AEF54E40E941F02DC01CB017C
:102770008F839887A987BA876F81788589859A859D
:1027800020E030E040E85FE30E94790388232CF4E6
:1027900081E090E09E838D833FC06F81788589853D
:1027A0009A8520E03FEF4FE757E40E94190318167F
:1027B0004CF56B857C858D859E8520E030E040E280
:1027C00051E40E941F02DC01CB01BC01CD010E943B
:1027D0004900DC01CB019E838D830FC088EC90E023
:1027E0009C838B838B819C810197F1F79C838B83E6
:1027F0008D819E8101979E838D838D819E8100971F
:1028000069F714C06F81788589859A850E9449008F
:10281000DC01CB019E838D838D819E819A83898388
:1028200089819A810197F1F79A8389838F858F5FD8
:102830008F878F85843008F465CF65960FB6F8943E
:10284000DEBF0FBECDBFCF91DF910895AF92BF9293
:10285000CF92DF92EF92FF920F931F93DF93CF936C
:10286000CDB7DEB7A2970FB6F894DEBF0FBECDBFCF
:1028700098A38F8F7AA369A3E9A1FAA1108211828C
:10288000128213821E8E1D8EABC08D8D282F30E0DC
:102890008F8D98A1820F931F9E01225E3F4FB90139
:1028A0000E94890680E090E0A8E4B2E4898F9A8FC4
:1028B000AB8FBC8F698D7A8D8B8D9C8D20E030E045
:1028C0004AEF54E40E941F02DC01CB018D8B9E8BEA
:1028D000AF8BB88F6D897E898F89988D20E030E02D
:1028E00040E85FE30E94790388232CF481E090E0C4
:1028F0009C8B8B8B3FC06D897E898F89988D20E062
:102900003FEF4FE757E40E94190318164CF5698D05
:102910007A8D8B8D9C8D20E030E040E251E40E9466
:102920001F02DC01CB01BC01CD010E944900DC018A
:10293000CB019C8B8B8B0FC088EC90E09A8B898BA2
:1029400089899A890197F1F79A8B898B8B899C8960
:1029500001979C8B8B8B8B899C89009769F714C09E
:102960006D897E898F89988D0E944900DC01CB0199
:102970009C8B8B8B8B899C89988B8F878F85988973
:102980000197F1F7988B8F87E9A1FAA1E080F18098
:10299000028113818E8D282F30E040E050E08D8D34
:1029A000882F90E0880F991F880F991F880F991F13
:1029B00059016A0104C0AA0CBB1CCC1CDD1C8A9501
:1029C000D2F7D601C5018E299F29A02BB12BE9A1F1
:1029D000FAA180839183A283B3838D8D8F5F8D8FC6
:1029E0008D8D843008F451CF80E090E0A0EAB1E40E
:1029F0008B879C87AD87BE876B857C858D859E8503
:102A000020E030E04AEF54E40E941F02DC01CB01D9
:102A10008F839887A987BA876F81788589859A85FA
:102A200020E030E040E85FE30E94790388232CF443
:102A300081E090E09E838D833FC06F81788589859A
:102A40009A8520E03FEF4FE757E40E9419031816DC
:102A50004CF56B857C858D859E8520E030E040E2DD
:102A600051E40E941F02DC01CB01BC01CD010E9498
:102A70004900DC01CB019E838D830FC088EC90E080
:102A80009C838B838B819C810197F1F79C838B8343
:102A90008D819E8101979E838D838D819E8100977C
:102AA00069F714C06F81788589859A850E944900ED
:102AB000DC01CB019E838D838D819E819A838983E6
:102AC00089819A810197F1F79A838983A2960FB63B
:102AD000F894DEBF0FBECDBFCF91DF911F910F9154
:102AE000FF90EF90DF90CF90BF90AF900895DF936D
:102AF000CF9300D000D0CDB7DEB79C838B831A82F2
:102B0000EB81FC811082118212821382198225C00E
:102B10000E94C3118A83EB81FC8180819181A28113
:102B2000B3812AE030E040E050E0BC01CD010E94DA
:102B3000CC159B01AC018A81882F90E0A0E0B0E029
:102B4000820F931FA41FB51FEB81FC8180839183AB
:102B5000A283B38389818F5F898389818530C0F2A5
:102B60000F900F900F900F90CF91DF910895DF930A
:102B7000CF93CDB7DEB790917B0080917A00981704
:102B800018F00E94391005C080917B008F5F809300
:102B90007B00CF91DF910895629FD001739FF00178
:102BA000829FE00DF11D649FE00DF11D929FF00DDD
:102BB000839FF00D749FF00D659FF00D9927729F14
:102BC000B00DE11DF91F639FB00DE11DF91FBD019F
:102BD000CF0111240895A1E21A2EAA1BBB1BFD01EF
:102BE0000DC0AA1FBB1FEE1FFF1FA217B307E407EC
:102BF000F50720F0A21BB30BE40BF50B661F771F44
:102C0000881F991F1A9469F7609570958095909523
:102C10009B01AC01BD01CF0108952F923F924F92CD
:102C20005F926F927F928F929F92AF92BF92CF925C
:102C3000DF92EF92FF920F931F93CF93DF93CDB765
:102C4000DEB7CA1BDB0B0FB6F894DEBF0FBECDBFDD
:102C500009942A88398848885F846E847D848C84AE
:102C60009B84AA84B984C884DF80EE80FD800C81B7
:102C70001B81AA81B981CE0FD11D0FB6F894DEBF9A
:102C80000FBECDBFED010895FB019F01E8944230D6
:102C9000C4F04532B4F44A3029F497FB1EF4909501
:102CA00081959F4F642F77270E947516805D8A3328
:102CB0000CF0895D8193CB010097A1F716F45DE2DA
:102CC00051931082C9010C946516DC01FC01672F39
:102CD00071917723E1F7329704C07C916D937083F3
:102CE0006291AE17BF07C8F30895AA1BBB1B51E141
:102CF00007C0AA1FBB1FA617B70710F0A61BB70B6C
:102D0000881F991F5A95A9F780959095BC01CD0110
:062D10000895F894FFCFC6
:082D16000000000000000000B5
:00000001FF
