:100000000C942A000C9447000C9447000C94470071
:100010000C9447000C9447000C9447000C945B1020
:100020000C9447000C948E100C9447000C944700DD
:100030000C9447000C9447000C9447000C94470024
:100040000C9447000C9447000C9447000C94470014
:100050000C94470011241FBECFE5D8E0DEBFCDBF12
:1000600011E0A0E6B0E0ECEEF3E302C005900D92E3
:10007000A032B107D9F711E0A0E2B1E001C01D92B2
:10008000A933B107E1F70E9473120C94F4190C9490
:100090000000EF92FF920F931F937B018C0120E0F1
:1000A00030E040E05FE40E94490388238CF0C801FF
:1000B000B70120E030E040E05FE40E94C1010E940F
:1000C000A9039B01AC01205030404040504806C07D
:1000D000C801B7010E94A9039B01AC01B901CA0183
:1000E0001F910F91FF90EF900895A0E0B0E0EBE733
:1000F000F0E00C947819DC012B01FA019C9192300C
:1001000008F439C1EB018881823008F433C194309E
:1001100069F4843009F02FC111969C91119789815F
:10012000981709F428C1A7E1B1E025C1843009F48A
:1001300021C18230A9F4923009F01DC19A01AD01AC
:1001400088E0EA010990AE01E90109929E0181501F
:10015000C1F7E201898111969C918923818308C1AD
:10016000923009F407C112962D903C901397EB0141
:100170008A819B811496AD90BD90CD90DC901797AD
:10018000EC80FD800E811F819101281B390BB90184
:1001900037FF04C066277727621B730B6032710537
:1001A0000CF061C0121613066CF537014801062EDB
:1001B00004C096948794779467940A94D2F721E0C8
:1001C00030E040E050E004C0220F331F441F551FB1
:1001D0006A95D2F721503040404050402E213F21B7
:1001E00040235123211531054105510521F021E01E
:1001F00030E040E050E079018A01E628F72808293C
:1002000019293CC0232BD1F1260E371E350146019A
:10021000062E04C096948794779467940A94D2F734
:1002200021E030E040E050E004C0220F331F441FC3
:10023000551F6A95D2F721503040404050402A2146
:100240003B214C215D21211531054105510521F04E
:1002500021E030E040E050E059016A01A628B728CB
:10026000C828D9280BC0821593052CF01C01AA249C
:10027000BB24650103C0EE24FF24870111969C91E5
:10028000D20111968C91981709F445C0992339F041
:10029000A80197012A193B094C095D0906C0A6016E
:1002A00095012E193F09400B510B57FD08C01182D3
:1002B0003382228224833583468357831DC081E0A5
:1002C00081833382228288279927DC01821B930B4A
:1002D000A40BB50B84839583A683B7830DC0220F2F
:1002E000331F441F551F24833583468357838281E0
:1002F000938101979383828324813581468157813D
:10030000DA01C9010197A109B1098F5F9F4FAF4F72
:10031000BF4328F30BC0918333822282EA0CFB1C7B
:100320000C1D1D1DE482F5820683178383E0808304
:10033000248135814681578157FF1AC0C901AA27F8
:1003400097FDA095BA2F81709070A070B0705695EF
:10035000479537952795822B932BA42BB52B848318
:100360009583A683B7838281938101969383828349
:10037000DF0101C0D201CD01CDB7DEB7E2E10C94BF
:100380009419A0E2B0E0E7ECF1E00C9484196983E1
:100390007A838B839C832D833E834F835887E9E048
:1003A000EE2EF12CEC0EFD1ECE010196B7010E943F
:1003B000D2048E010F5E1F4FCE010596B8010E9438
:1003C000D2048A8991E089278A8BC701B801AE01DE
:1003D000475E5F4F0E9475000E94FD03A096E6E015
:1003E0000C94A019A0E2B0E0E8EFF1E00C948419BD
:1003F00069837A838B839C832D833E834F835887C5
:10040000F9E0EF2EF12CEC0EFD1ECE010196B701A6
:100410000E94D2048E010F5E1F4FCE010596B801D7
:100420000E94D204C701B801AE01475E5F4F0E942F
:1004300075000E94FD03A096E6E00C94A019A0E2CE
:10044000B0E0E5E2F2E00C94781969837A838B835B
:100450009C832D833E834F835887CE010196BE0136
:10046000675F7F4F0E94D204CE010596BE016F5E8A
:100470007F4F0E94D2049985923088F0898982301A
:10048000C8F0943019F4823051F404C0843029F457
:10049000923081F487E191E0C6C0923049F420E0C7
:1004A0009A858A89981321E02A87CE010996BBC0D4
:1004B000823049F420E09A858A89981321E02A8BBA
:1004C000CE014196B0C02D843E844F8458886D88FB
:1004D0007E888F88988CEE24FF248701AA24BB2471
:1004E000650140E050E060E070E0E0E0F0E0C10174
:1004F00081709070892BE9F0E60CF71C081D191D1E
:100500009A01AB012A0D3B1D4C1D5D1D80E090E062
:10051000A0E0B0E0E614F7040805190520F481E036
:1005200090E0A0E0B0E0BA01A901480F591F6A1F8E
:100530007B1FAA0CBB1CCC1CDD1C97FE08C081E0F5
:1005400090E0A0E0B0E0A82AB92ACA2ADB2A3196B6
:10055000E032F10549F0660C771C881C991C569412
:10056000479437942794C3CFFA85EA892B893C892D
:100570008B859C85280F391F2E5F3F4F17C0CA01FE
:1005800081709070892B61F016950795F794E79428
:1005900080E090E0A0E0B0E8E82AF92A0A2B1B2BC3
:1005A00076956795579547952F5F3F4F77FDE7CF36
:1005B0000CC0440F551F661F771F17FD4160EE0CDE
:1005C000FF1C001F111F21503040403090E05907A0
:1005D00090E0690790E4790760F32B8F3C8FDB0193
:1005E000CA018F779070A070B07080349105A1051A
:1005F000B10561F447FD0AC0E114F10401051105DC
:1006000029F0405C5F4F6F4F7F4F40781A8EFE1786
:1006100011F081E08A8F4D8F5E8F6F8F78A383E01A
:10062000898FCE0149960E94FD03A096E2E10C94C9
:100630009419A8E1B0E0EFE1F3E00C948419698328
:100640007A838B839C832D833E834F83588789E0F5
:10065000E82EF12CEC0EFD1ECE010196B7010E9492
:10066000D2048E010F5E1F4FCE010596B8010E9485
:10067000D2048985823040F08989823028F0C70110
:10068000B8010E944A0501C08FEF6896E6E00C941D
:10069000A019A8E1B0E0EFE4F3E00C9484196983B9
:1006A0007A838B839C832D833E834F83588789E095
:1006B000E82EF12CEC0EFD1ECE010196B7010E9432
:1006C000D2048E010F5E1F4FCE010596B8010E9425
:1006D000D2048985823040F08989823028F0C701B0
:1006E000B8010E944A0501C08FEF6896E6E00C94BD
:1006F000A019A8E1B0E0EFE7F3E00C948419698356
:100700007A838B839C832D833E834F83588789E034
:10071000E82EF12CEC0EFD1ECE010196B7010E94D1
:10072000D2048E010F5E1F4FCE010596B8010E94C4
:10073000D2048985823040F08989823028F0C7014F
:10074000B8010E944A0501C081E06896E6E00C9479
:10075000A019ACE0B0E0EFEAF3E00C9488196983EB
:100760007A838B839C83CE010196BE016B5F7F4FA2
:100770000E94D2048D81823061F1823050F1843048
:1007800021F48E81882351F12EC02F81388537FDC9
:1007900020C06E812F3131051CF06623F9F023C093
:1007A0008EE190E0821B930B29853A854B855C8511
:1007B00004C056954795379527958A95D2F76623B5
:1007C000B1F050954095309521953F4F4F4F5F4F79
:1007D0000EC020E030E040E050E009C02FEF3FEFD6
:1007E0004FEF5FE704C020E030E040E050E8B9019F
:1007F000CA012C96E2E00C94A419DF92EF92FF92CA
:100800000F931F93FC01E480F58006811781D1804E
:100810008081823048F480E090E0A0E1B0E0E82AF6
:10082000F92A0A2B1B2BA5C0843009F49FC0823003
:1008300021F4EE24FF24870105C0E114F104010531
:10084000110519F4E0E0F0E096C0628173819FEF3A
:10085000623879070CF05BC022E83FEF261B370BAC
:100860002A3131052CF020E030E040E050E02AC091
:10087000B801A701022E04C0769567955795479554
:100880000A94D2F781E090E0A0E0B0E004C0880FC5
:10089000991FAA1FBB1F2A95D2F70197A109B10979
:1008A0008E219F21A023B1230097A105B10521F03E
:1008B00081E090E0A0E0B0E09A01AB01282B392B59
:1008C0004A2B5B2BDA01C9018F779070A070B07052
:1008D00080349105A105B10539F427FF09C0205CDA
:1008E0003F4F4F4F5F4F04C0215C3F4F4F4F5F4F13
:1008F000E0E0F0E02030A0E03A07A0E04A07A0E402
:100900005A0710F0E1E0F0E079018A0127C0603871
:10091000710564F5FB01E158FF4FD801C7018F77DE
:100920009070A070B07080349105A105B10539F4C4
:10093000E7FE0DC080E490E0A0E0B0E004C08FE3EB
:1009400090E0A0E0B0E0E80EF91E0A1F1B1F17FFA1
:1009500005C016950795F794E794319687E01695AC
:100960000795F794E7948A95D1F705C0EE24FF2404
:100970008701EFEFF0E06E2F679566276795902F60
:100980009F77D794DD24D7948E2F8695492F462BB9
:10099000582F5D29B701CA011F910F91FF90EF9069
:1009A000DF900895FC01DB01408151812281622F9B
:1009B0006F7770E0221F2227221F9381892F880FD3
:1009C000822B282F30E0991F9927991F11969C930D
:1009D000119721153105A9F54115510561057105DD
:1009E00011F482E037C082E89FEF13969C938E93B8
:1009F00012979A01AB0167E0220F331F441F551F66
:100A00006A95D1F783E08C930DC0220F331F441FEA
:100A1000551F12968D919C911397019713969C9355
:100A20008E931297203080E0380780E0480780E4FA
:100A3000580758F314962D933D934D935C93179755
:100A400008952F3F310579F4411551056105710570
:100A500019F484E08C93089564FF03C081E08C93C3
:100A600012C01C9210C02F57304013963C932E9307
:100A7000129783E08C9387E0440F551F661F771F02
:100A80008A95D1F7706414964D935D936D937C9322
:100A9000179708951F93DC01FB019C91923008F495
:100AA00047C08081823008F443C0943051F41196DD
:100AB0001C91843099F58181682F70E0611B710968
:100AC0003FC0843021F0923031F48230B9F181811D
:100AD000882389F12DC011961C9111978230F1F075
:100AE00081811817D9F412962D913C911397828128
:100AF00093818217930794F028173907BCF0149656
:100B00008D919D910D90BC91A02D248135814681C0
:100B10005781281739074A075B0718F4112341F05A
:100B20000AC082179307A407B50740F4112319F0F0
:100B300061E070E005C06FEF7FEF02C060E070E041
:100B4000CB011F910895DF93CF93CDB7DEB76097A8
:100B50000FB6F894DEBF0FBECDBF81E064E040E089
:100B60000E941D0D81E065E040E00E941D0D81E0C6
:100B700066E040E00E941D0D81E067E040E00E94D9
:100B80001D0D83E062E040E00E941D0D83E063E004
:100B900040E00E941D0D83E064E040E00E941D0DD6
:100BA00083E065E040E00E941D0D1F86BDC08F857B
:100BB000982F9C5F81E0692F41E00E941D0D8F8579
:100BC000982F9C5F81E0692F40E00E94080E188AF0
:100BD0002BC08889982F9E5F83E0692F0E94F30EB7
:100BE0008823F9F48889982F9E5F83E0692F0E94FB
:100BF000F30E8823B9F38F85882F90E0880F991F13
:100C0000880F991F982F8889890F8F5F0E949906F6
:100C100060960FB6F894DEBF0FBECDBFCF91DF91C7
:100C2000089588898F5F888B8889843090F28F85BA
:100C3000982F9C5F81E0692F40E00E941D0D80E0AD
:100C400090E0A0EAB0E48B879C87AD87BE876B8578
:100C50007C858D859E8520E030E04AEF54E40E943B
:100C60001F02DC01CB018F839887A987BA876F8128
:100C7000788589859A8520E030E040E85FE30E942E
:100C8000790388232CF481E090E09E838D833FC01C
:100C90006F81788589859A8520E03FEF4FE757E49B
:100CA0000E94190318164CF56B857C858D859E85F1
:100CB00020E030E040E251E40E941F02DC01CB0161
:100CC000BC01CD010E944900DC01CB019E838D83D4
:100CD0000FC088EC90E09C838B838B819C81019773
:100CE000F1F79C838B838D819E8101979E838D83F9
:100CF0008D819E81009769F714C06F817885898501
:100D00009A850E944900DC01CB019E838D838D81F1
:100D10009E819A83898389819A810197F1F79A83C9
:100D200089838F858F5F8F878F85843008F43FCFCD
:100D30003CCFDF93CF9300D000D0CDB7DEB78A830E
:100D400019828A81282F30E03C832B838B819C8100
:100D50008830910509F470C02B813C812930310520
:100D60005CF58B819C818430910509F459C02B81FD
:100D70003C81253031059CF48B819C81823091052A
:100D800009F448C02B813C81233031050CF045C06B
:100D90008B819C818130910509F439C067C02B811A
:100DA0003C812630310509F441C08B819C8187301C
:100DB00091050CF03EC037C02B813C812C303105B1
:100DC00009F446C08B819C818D3091055CF42B81A8
:100DD0003C812A303105B1F18B819C818B309105AA
:100DE000A4F52DC02B813C812E303105B9F18B81CA
:100DF0009C818E3091057CF12B813C812F30310517
:100E000079F18B819C818031910569F12FC087E058
:100E100089832EC088E089832BC089E0898328C01C
:100E20008FE2898325C084E0898322C085E089839D
:100E30001FC086E089831CC08AE2898319C081E0D3
:100E4000898316C082E0898313C083E0898310C040
:100E50008DE289830DC08DE089830AC0198208C0A4
:100E60008DE3898305C08BE2898302C08A818983EF
:100E700089810F900F900F900F90CF91DF9108957F
:100E8000DF93CF93CDB7DEB72E970FB6F894DEBFC2
:100E90000FBECDBF80E060E041E00E941D0D80E00C
:100EA00061E041E00E941D0D80E090E0A0EAB1E425
:100EB0008B879C87AD87BE876B857C858D859E855E
:100EC00020E030E04AEF54E40E941F02DC01CB0135
:100ED0008F839887A987BA876F81788589859A8556
:100EE00020E030E040E85FE30E94790388232CF49F
:100EF00081E090E09E838D833FC06F8178858985F6
:100F00009A8520E03FEF4FE757E40E941903181637
:100F10004CF56B857C858D859E8520E030E040E238
:100F200051E40E941F02DC01CB01BC01CD010E94F3
:100F30004900DC01CB019E838D830FC088EC90E0DB
:100F40009C838B838B819C810197F1F79C838B839E
:100F50008D819E8101979E838D838D819E810097D7
:100F600069F714C06F81788589859A850E94490048
:100F7000DC01CB019E838D838D819E819A83898341
:100F800089819A810197F1F79A83898382E06FEFD3
:100F90000E948E0F88E30E94DC078CE00E94DC0731
:100FA00081E00E94DC072E960FB6F894DEBF0FBEDC
:100FB000CDBFCF91DF910895DF93CF93CDB7DEB74B
:100FC000E9970FB6F894DEBF0FBECDBF89AF80E0C2
:100FD00060E040E00E94080E80E090E0A0E8BFE3FF
:100FE0008DAB9EABAFABB8AF6DA97EA98FA998AD05
:100FF00020E030E04AEF54E40E941F02DC01CB0104
:1010000089AB9AABABABBCAB69A97AA98BA99CA9FC
:1010100020E030E040E85FE30E94790388232CF46D
:1010200081E090E098AB8FA73FC069A97AA98BA90E
:101030009CA920E03FEF4FE757E40E9419031816E0
:101040004CF56DA97EA98FA998AD20E030E040E273
:1010500051E40E941F02DC01CB01BC01CD010E94C2
:101060004900DC01CB0198AB8FA70FC088EC90E062
:101070009EA78DA78DA59EA50197F1F79EA78DA789
:101080008FA598A9019798AB8FA78FA598A90097CE
:1010900069F714C069A97AA98BA99CA90E94490083
:1010A000DC01CB0198AB8FA78FA598A99CA78BA734
:1010B0008BA59CA50197F1F79CA78BA780E061E029
:1010C00041E00E94080E80E090E0A0E8BFE38FA31B
:1010D00098A7A9A7BAA76FA178A589A59AA520E086
:1010E00030E04AEF54E40E941F02DC01CB018BA3E5
:1010F0009CA3ADA3BEA36BA17CA18DA19EA120E06A
:1011000030E040E85FE30E94790388232CF481E01B
:1011100090E09AA389A33FC06BA17CA18DA19EA161
:1011200020E03FEF4FE757E40E94190318164CF5F3
:101130006FA178A589A59AA520E030E040E251E4AE
:101140000E941F02DC01CB01BC01CD010E944900BD
:10115000DC01CB019AA389A30FC088EC90E098A38F
:101160008F8F8F8D98A10197F1F798A38F8F89A109
:101170009AA101979AA389A389A19AA1009769F7D7
:1011800014C06BA17CA18DA19EA10E944900DC012D
:10119000CB019AA389A389A19AA19E8F8D8F8D8D52
:1011A0009E8D0197F1F79E8F8D8F82E069AD0E9431
:1011B000D20F80E090E0A0E8BFE3898F9A8FAB8FD9
:1011C000BC8F698D7A8D8B8D9C8D20E030E04AEF4D
:1011D00054E40E941F02DC01CB018D8B9E8BAF8BF0
:1011E000B88F6D897E898F89988D20E030E040E846
:1011F0005FE30E94790388232CF481E090E09C8BCC
:101200008B8B3FC06D897E898F89988D20E03FEF61
:101210004FE757E40E94190318164CF5698D7A8D33
:101220008B8D9C8D20E030E040E251E40E941F0253
:10123000DC01CB01BC01CD010E944900DC01CB01E6
:101240009C8B8B8B0FC088EC90E09A8B898B898963
:101250009A890197F1F79A8B898B8B899C890197E1
:101260009C8B8B8B8B899C89009769F714C06D8947
:101270007E898F89988D0E944900DC01CB019C8B6F
:101280008B8B8B899C89988B8F878F859889019709
:10129000F1F7988B8F8780E061E040E00E94080EB4
:1012A00080E090E0A0E8BFE38B879C87AD87BE8796
:1012B0006B857C858D859E8520E030E04AEF54E487
:1012C0000E941F02DC01CB018F839887A987BA8710
:1012D0006F81788589859A8520E030E040E85FE37A
:1012E0000E94790388232CF481E090E09E838D8313
:1012F0003FC06F81788589859A8520E03FEF4FE771
:1013000057E40E94190318164CF56B857C858D8572
:101310009E8520E030E040E251E40E941F02DC01A3
:10132000CB01BC01CD010E944900DC01CB019E83B1
:101330008D830FC088EC90E09C838B838B819C8194
:101340000197F1F79C838B838D819E8101979E830A
:101350008D838D819E81009769F714C06F81788598
:1013600089859A850E944900DC01CB019E838D838B
:101370008D819E819A83898389819A810197F1F772
:101380009A838983E9960FB6F894DEBF0FBECDBF6E
:10139000CF91DF910895DF93CF93CDB7DEB7E99773
:1013A0000FB6F894DEBF0FBECDBF89AF80E060E01E
:1013B00041E00E94080E80E090E0A0E8BFE38DAB22
:1013C0009EABAFABB8AF6DA97EA98FA998AD20E059
:1013D00030E04AEF54E40E941F02DC01CB0189ABEC
:1013E0009AABABABBCAB69A97AA98BA99CA920E04D
:1013F00030E040E85FE30E94790388232CF481E029
:1014000090E098AB8FA73FC069A97AA98BA99CA946
:1014100020E03FEF4FE757E40E94190318164CF500
:101420006DA97EA98FA998AD20E030E040E251E49B
:101430000E941F02DC01CB01BC01CD010E944900CA
:10144000DC01CB0198AB8FA70FC088EC90E09EA782
:101450008DA78DA59EA50197F1F79EA78DA78FA5B6
:1014600098A9019798AB8FA78FA598A9009769F7BE
:1014700014C069A97AA98BA99CA90E944900DC0122
:10148000CB0198AB8FA78FA598A99CA78BA78BA5FD
:101490009CA50197F1F79CA78BA780E061E041E054
:1014A0000E94080E80E090E0A0E8BFE38FA398A719
:1014B000A9A7BAA76FA178A589A59AA520E030E0D1
:1014C0004AEF54E40E941F02DC01CB018BA39CA3D2
:1014D000ADA3BEA36BA17CA18DA19EA120E030E0B5
:1014E00040E85FE30E94790388232CF481E090E0D8
:1014F0009AA389A33FC06BA17CA18DA19EA120E0EE
:101500003FEF4FE757E40E94190318164CF56FA1FF
:1015100078A589A59AA520E030E040E251E40E9438
:101520001F02DC01CB01BC01CD010E944900DC019E
:10153000CB019AA389A30FC088EC90E098A38F8F6A
:101540008F8D98A10197F1F798A38F8F89A19AA108
:1015500001979AA389A389A19AA1009769F714C05A
:101560006BA17CA18DA19EA10E944900DC01CB0151
:101570009AA389A389A19AA19E8F8D8F8D8D9E8D0F
:101580000197F1F79E8F8D8F82E069AD0E94D20F97
:1015900080E090E0A0E8BFE3898F9A8FAB8FBC8F8B
:1015A000698D7A8D8B8D9C8D20E030E04AEF54E47C
:1015B0000E941F02DC01CB018D8B9E8BAF8BB88FFD
:1015C0006D897E898F89988D20E030E040E85FE367
:1015D0000E94790388232CF481E090E09C8B8B8B14
:1015E0003FC06D897E898F89988D20E03FEF4FE75E
:1015F00057E40E94190318164CF5698D7A8D8B8D6E
:101600009C8D20E030E040E251E40E941F02DC01AA
:10161000CB01BC01CD010E944900DC01CB019C8BB8
:101620008B8B0FC088EC90E09A8B898B89899A8983
:101630000197F1F79A8B898B8B899C8901979C8BF9
:101640008B8B8B899C89009769F714C06D897E8983
:101650008F89988D0E944900DC01CB019C8B8B8B7C
:101660008B899C89988B8F878F8598890197F1F753
:10167000988B8F8780E061E040E00E94080E80E058
:1016800090E0A0E8BFE38B879C87AD87BE876B8522
:101690007C858D859E8520E030E04AEF54E40E94F1
:1016A0001F02DC01CB018F839887A987BA876F81DE
:1016B000788589859A8520E030E040E85FE30E94E4
:1016C000790388232CF481E090E09E838D833FC0D2
:1016D0006F81788589859A8520E03FEF4FE757E451
:1016E0000E94190318164CF56B857C858D859E85A7
:1016F00020E030E040E251E40E941F02DC01CB0117
:10170000BC01CD010E944900DC01CB019E838D8389
:101710000FC088EC90E09C838B838B819C81019728
:10172000F1F79C838B838D819E8101979E838D83AE
:101730008D819E81009769F714C06F8178858985B6
:101740009A850E944900DC01CB019E838D838D81A7
:101750009E819A83898389819A810197F1F79A837F
:101760008983E9960FB6F894DEBF0FBECDBFCF9147
:10177000DF910895DF93CF93CDB7DEB761970FB6B2
:10178000F894DEBF0FBECDBF998B888B1F8680C0BB
:101790008F85282F30E088899989FC01E20FF31F9B
:1017A00080810E94CB0980E090E0A0E7B1E48B87C4
:1017B0009C87AD87BE876B857C858D859E8520E067
:1017C00030E04AEF54E40E941F02DC01CB018F831A
:1017D0009887A987BA876F81788589859A8520E05F
:1017E00030E040E85FE30E94790388232CF481E035
:1017F00090E09E838D833FC06F81788589859A852F
:1018000020E03FEF4FE757E40E94190318164CF50C
:101810006B857C858D859E8520E030E040E251E43B
:101820000E941F02DC01CB01BC01CD010E944900D6
:10183000DC01CB019E838D830FC088EC90E09C83FC
:101840008B838B819C810197F1F79C838B838D81A6
:101850009E8101979E838D838D819E81009769F77C
:1018600014C06F81788589859A850E944900DC01C2
:10187000CB019E838D838D819E819A83898389810B
:101880009A810197F1F79A8389838F858F5F8F877C
:101890008F85282F30E088899989FC01E20FF31F9A
:1018A0008081882309F074CF61960FB6F894DEBF6B
:1018B0000FBECDBFCF91DF910895DF93CF9300D0BE
:1018C00000D00F92CDB7DEB78A836B838A81282F31
:1018D00030E03D832C838C819D8181309105C1F066
:1018E0002C813D81223031052CF48C819D81009723
:1018F00061F019C02C813D812230310569F08C8165
:101900009D818330910561F00EC08B8189830BC06E
:101910008B81805C898307C08B81805F898303C052
:101920008B81805B8983898180680E94DC070F90AE
:101930000F900F900F900F90CF91DF910895DF934C
:10194000CF9300D000D0CDB7DEB789836A835C83A4
:101950004B8389816A810E945D0C8B819C810E94EE
:10196000BA0B0F900F900F900F90CF91DF910895C9
:10197000DF93CF93CDB7DEB762970FB6F894DEBF93
:101980000FBECDBF9A8B898B89899A899E012F5F63
:101990003F4FB9014AE050E00E94AF19CE010196D5
:1019A0000E94BA0B62960FB6F894DEBF0FBECDBF91
:1019B000CF91DF910895DF93CF93CDB7DEB781E06C
:1019C0000E94DC07CF91DF910895DF93CF9300D081
:1019D000CDB7DEB7898303C08CE10E94DC07898123
:1019E0008A838A81882311F081E08A838A819981A0
:1019F00091509983882381F70F900F90CF91DF91B9
:101A00000895DF93CF9300D0CDB7DEB7898303C0AD
:101A100088E10E94DC0789818A838A81882311F00A
:101A200081E08A838A81998191509983882381F703
:101A30000F900F90CF91DF910895DF93CF9300D057
:101A400000D00F92CDB7DEB789836A834B838A813A
:101A5000883008F0D5C08981843008F0D1C08981F0
:101A6000282F30E03D832C838C819D81813091052E
:101A700009F443C02C813D81223031052CF48C8146
:101A80009D81009771F0BCC02C813D8122303105D1
:101A900009F45FC08C819D818330910509F485C074
:101AA000AFC08B818130A1F4AAE3B0E0EAE3F0E0BB
:101AB0008081482F8A81282F30E081E090E0022E3B
:101AC00002C0880F991F0A94E2F7842B8C9398C068
:101AD000AAE3B0E0EAE3F0E08081482F8A81282F72
:101AE00030E081E090E0022E02C0880F991F0A9436
:101AF000E2F7809584238C9383C08B818130A1F49D
:101B0000A7E3B0E0E7E3F0E08081482F8A81282F47
:101B100030E081E090E0022E02C0880F991F0A9405
:101B2000E2F7842B8C936CC0A7E3B0E0E7E3F0E02E
:101B30008081482F8A81282F30E081E090E0022EBA
:101B400002C0880F991F0A94E2F7809584238C9332
:101B500057C08B818130A1F4A4E3B0E0E4E3F0E06E
:101B60008081482F8A81282F30E081E090E0022E8A
:101B700002C0880F991F0A94E2F7842B8C9340C00F
:101B8000A4E3B0E0E4E3F0E08081482F8A81282FCD
:101B900030E081E090E0022E02C0880F991F0A9485
:101BA000E2F7809584238C932BC08B818130A1F444
:101BB000A1E3B0E0E1E3F0E08081482F8A81282FA3
:101BC00030E081E090E0022E02C0880F991F0A9455
:101BD000E2F7842B8C9314C0A1E3B0E0E1E3F0E0E2
:101BE0008081482F8A81282F30E081E090E0022E0A
:101BF00002C0880F991F0A94E2F7809584238C9382
:101C00000F900F900F900F900F90CF91DF9108954C
:101C1000DF93CF9300D000D00F92CDB7DEB789838A
:101C20006A834B838A81883008F0D5C089818430EB
:101C300008F0D1C08981282F30E03D832C838C812E
:101C40009D818130910509F443C02C813D81223072
:101C500031052CF48C819D81009771F0BCC02C81E2
:101C60003D812230310509F45FC08C819D81833034
:101C7000910509F485C0AFC08B818130A1F4ABE33D
:101C8000B0E0EBE3F0E08081482F8A81282F30E03C
:101C900081E090E0022E02C0880F991F0A94E2F7BB
:101CA000842B8C9398C0ABE3B0E0EBE3F0E0808151
:101CB000482F8A81282F30E081E090E0022E02C078
:101CC000880F991F0A94E2F7809584238C9383C030
:101CD0008B818130A1F4A8E3B0E0E8E3F0E08081FB
:101CE000482F8A81282F30E081E090E0022E02C048
:101CF000880F991F0A94E2F7842B8C936CC0A8E399
:101D0000B0E0E8E3F0E08081482F8A81282F30E0BE
:101D100081E090E0022E02C0880F991F0A94E2F73A
:101D2000809584238C9357C08B818130A1F4A5E3E7
:101D3000B0E0E5E3F0E08081482F8A81282F30E091
:101D400081E090E0022E02C0880F991F0A94E2F70A
:101D5000842B8C9340C0A5E3B0E0E5E3F0E0808104
:101D6000482F8A81282F30E081E090E0022E02C0C7
:101D7000880F991F0A94E2F7809584238C932BC0D7
:101D80008B818130A1F4A2E3B0E0E2E3F0E0808156
:101D9000482F8A81282F30E081E090E0022E02C097
:101DA000880F991F0A94E2F7842B8C9314C0A2E346
:101DB000B0E0E2E3F0E08081482F8A81282F30E014
:101DC00081E090E0022E02C0880F991F0A94E2F78A
:101DD000809584238C930F900F900F900F900F900D
:101DE000CF91DF910895DF93CF9300D000D00F9271
:101DF000CDB7DEB78A836B8319828B81883008F078
:101E000084C08A81843008F080C08A81282F30E025
:101E10003D832C834C815D814130510579F18C816A
:101E20009D818230910534F42C813D81211531054D
:101E300069F06BC04C815D8142305105B9F18C81F4
:101E40009D818330910509F449C05FC0E9E3F0E06A
:101E50008081282F30E08B81882F90E0A90102C07B
:101E6000559547958A95E2F7CA018170907088234D
:101E700019F081E0898349C0198247C0E6E3F0E0A8
:101E80008081282F30E08B81882F90E0A90102C04B
:101E9000559547958A95E2F7CA018170907088231D
:101EA00019F081E0898331C019822FC0E3E3F0E0AB
:101EB0008081282F30E08B81882F90E0A90102C01B
:101EC000559547958A95E2F7CA01817090708823ED
:101ED00019F081E0898319C0198217C0E0E3F0E0AE
:101EE0008081282F30E08B81882F90E0A90102C0EB
:101EF000559547958A95E2F7CA01817090708823BD
:101F000019F081E0898301C0198289810F900F90B7
:101F10000F900F900F90CF91DF910895DF93CF93A3
:101F200000D000D0CDB7DEB789836A838981843041
:101F300090F58981282F30E03C832B838B819C8115
:101F400081309105D1F02B813C81223031052CF478
:101F50008B819C81009761F01EC02B813C812230D7
:101F6000310581F08B819C818330910581F013C014
:101F7000EAE3F0E08A8180830EC0E7E3F0E08A8143
:101F8000808309C0E4E3F0E08A81808304C0E1E358
:101F9000F0E08A8180830F900F900F900F90CF9187
:101FA000DF910895DF93CF9300D000D0CDB7DEB797
:101FB00089836A838981843090F58981282F30E074
:101FC0003C832B838B819C8181309105D1F02B81C7
:101FD0003C81223031052CF48B819C81009761F08B
:101FE0001EC02B813C812230310581F08B819C8188
:101FF0008330910581F013C0EBE3F0E08A818083A8
:102000000EC0E8E3F0E08A81808309C0E5E3F0E0F8
:102010008A81808304C0E2E3F0E08A8180830F90AC
:102020000F900F900F90CF91DF910895DF93CF9392
:1020300000D000D0CDB7DEB78A8319828A81843080
:1020400090F58A81282F30E03C832B838B819C8103
:1020500081309105D1F02B813C81223031052CF467
:102060008B819C81009761F01EC02B813C812230C6
:10207000310581F08B819C818330910581F013C003
:10208000E9E3F0E0808189830EC0E6E3F0E080813F
:10209000898309C0E3E3F0E08081898304C0E0E341
:1020A000F0E08081898389810F900F900F900F90CD
:1020B000CF91DF9108951F920F920FB60F921124C6
:1020C0002F933F934F935F936F937F938F939F9340
:1020D000AF93BF93EF93FF93DF93CF93CDB7DEB76B
:1020E0008091200190912101009729F0E091200139
:1020F000F09121010995CF91DF91FF91EF91BF916F
:10210000AF919F918F917F916F915F914F913F918F
:102110002F910F900FBE0F901F9018951F920F9246
:102120000FB60F9211242F933F934F935F936F93AA
:102130007F938F939F93AF93BF93EF93FF93DF931F
:10214000CF93CDB7DEB78091200190912101009708
:1021500029F0E0912001F09121010995CF91DF91C3
:10216000FF91EF91BF91AF919F918F917F916F916F
:102170005F914F913F912F910F900FBE0F901F9045
:102180001895DF93CF9300D0CDB7DEB79A838983BC
:10219000EFE4F0E01082EEE4F0E01082AEE4B0E0B4
:1021A000E981FA81848188608C93ACE4B0E0E981B4
:1021B000FA818081918111969C938E93E981FA81B5
:1021C0008581843089F4AAE4B0E0E981FA818281D2
:1021D000938111969C938E93A9E5B0E0E9E5F0E038
:1021E000808180618C9307C0A9E5B0E0E9E5F0E06B
:1021F000808184608C930F900F90CF91DF91089530
:10220000DF93CF93CDB7DEB7EFE4F0E01082EEE4DA
:10221000F0E01082ECE4F0E011821082A9E5B0E079
:10222000E9E5F0E080818B7E8C9310922101109281
:102230002001CF91DF910895DF93CF9300D0CDB7E8
:10224000DEB79A83898389819A8190932101809353
:1022500020010F900F90CF91DF910895DF93CF93DE
:1022600000D000D00F92CDB7DEB79D838C831B8248
:102270001A8288E08983ABE2B0E0EC81FD81808541
:10228000880F8C93EAE2F0E088E18083A0E4B0E07C
:10229000EC81FD818781882F90E0002496958795B9
:1022A0000794969587950794982F802D282FEC8179
:1022B000FD818281882F90E0880F991F880F991FD8
:1022C000880F991F282BEC81FD818181882F90E058
:1022D00082959295907F9827807F9827822B80689F
:1022E0008C93EC81FD8180818730C1F4A0E4B0E063
:1022F000E0E4F0E08081282FEC81FD818081882F4F
:1023000090E0880F991F8670822B8C93AAE2B0E030
:10231000EAE2F0E0808184608C9310C0A0E4B0E039
:10232000E0E4F0E08081282FEC81FD818081882F1E
:1023300090E0880F991F8670822B8C93EC81FD8131
:102340008781882359F4EC81FD818085882319F4E5
:1023500080E1898305C088E0898302C082E08983A7
:10236000EC81FD8183819481A581B6812981222F11
:1023700030E040E050E0BC01CD010E9437199B01E4
:10238000AC0180E092E1AAE7B0E0BC01CD010E947F
:102390005619DA01C90101979B838A83E0E4F0E0D2
:1023A0008A819B81892F99278083E9E2F0E08A81E5
:1023B00080830F900F900F900F900F90CF91DF912F
:1023C0000895DF93CF930F92CDB7DEB78983EBE209
:1023D000F0E08081882F90E0807290700097B9F3D0
:1023E000ECE2F0E0898180830F90CF91DF91089536
:1023F000DF93CF93CDB7DEB7EBE2F0E080818823A7
:10240000DCF7ECE2F0E08081CF91DF910895DF937B
:10241000CF9300D00F92CDB7DEB79B838A8319820A
:102420000EC08981282F30E08A819B81FC01E20F58
:10243000F31F80810E94E11189818F5F89838981E7
:10244000282F30E08A819B81FC01E20FF31F8081FD
:10245000882339F70F900F900F90CF91DF91089557
:102460000F931F93DF93CF9300D00F92CDB7DEB7BA
:102470009B838A8319828981282F30E08A819B81FE
:102480008C01020F131F0E94F811F80180830FC006
:1024900089818F5F89838981282F30E08A819B81A0
:1024A0008C01020F131F0E94F811F80180838981AB
:1024B000282F30E08A819B81FC01E20FF31F80818D
:1024C000833231F78981282F30E08A819B81FC019A
:1024D000E20FF31F10820F900F900F90CF91DF91BA
:1024E0001F910F910895DF93CF93CDB7DEB7C154FD
:1024F000D0400FB6F894DEBF0FBECDBF0E9440079C
:1025000080E895E2A0E0B0E08CAF9DAFAEAFBFAF8A
:1025100083E089AF1AAE1BAEFE01E05CFF4F108274
:10252000FE01EF5BFF4F81E08083CE01C9960E94E0
:102530002E1184E08093370184E08093360110925D
:1025400033011092320182E19AE790933501809332
:102550003401AFE5B0E0EFE5F0E0808180688C9376
:1025600010922E011092260110922701109228013C
:10257000109229018091260190912701A0912801B4
:10258000B09129018093220190932301A09324010B
:10259000B093250180E690E00E949E15DC01CB01FE
:1025A0008093220190932301A0932401B0932501ED
:1025B00080E090E0A0E2B1E48DAB9EABAFABB8AFF2
:1025C0006DA97EA98FA998AD20E030E04AEF54E4D0
:1025D0000E941F02DC01CB0189AB9AABABABBCAB59
:1025E00069A97AA98BA99CA920E030E040E85FE3C3
:1025F0000E94790388232CF481E090E098AB8FA7A8
:102600003FC069A97AA98BA99CA920E03FEF4FE7B9
:1026100057E40E94190318164CF56DA97EA98FA9DD
:1026200098AD20E030E040E251E40E941F02DC015E
:10263000CB01BC01CD010E944900DC01CB0198AB6C
:102640008FA70FC088EC90E09EA78DA78DA59EA5B3
:102650000197F1F79EA78DA78FA598A9019798AB31
:102660008FA78FA598A9009769F714C069A97AA9BF
:102670008BA99CA90E944900DC01CB0198AB8FA7D4
:102680008FA598A99CA78BA78BA59CA50197F1F76F
:102690009CA78BA787E790E00E949E15DC01CB01E9
:1026A0008093260190932701A0932801B0932901DC
:1026B00080E090E0A0E2B1E48FA398A7A9A7BAA711
:1026C0006FA178A589A59AA520E030E04AEF54E4EF
:1026D0000E941F02DC01CB018BA39CA3ADA3BEA370
:1026E0006BA17CA18DA19EA120E030E040E85FE3DA
:1026F0000E94790388232CF481E090E09AA389A3B7
:102700003FC06BA17CA18DA19EA120E03FEF4FE7D0
:1027100057E40E94190318164CF56FA178A589A5F6
:102720009AA520E030E040E251E40E941F02DC0163
:10273000CB01BC01CD010E944900DC01CB019AA371
:1027400089A30FC088EC90E098A38F8F8F8D98A1FC
:102750000197F1F798A38F8F89A19AA101979AA366
:1027600089A389A19AA1009769F714C06BA17CA1E4
:102770008DA19EA10E944900DC01CB019AA389A3EF
:1027800089A19AA19E8F8D8F8D8D9E8D0197F1F7D6
:102790009E8F8D8F8091220190912301A091240121
:1027A000B0912501BC01CD010E942B18809126011A
:1027B00090912701A0912801B0912901BC01CD0180
:1027C0000E942B1880E090E0A8E4B3E4898F9A8FF0
:1027D000AB8FBC8F698D7A8D8B8D9C8D20E030E026
:1027E0004AEF54E40E941F02DC01CB018D8B9E8BCB
:1027F000AF8BB88F6D897E898F89988D20E030E00E
:1028000040E85FE30E94790388232CF481E090E0A4
:102810009C8B8B8B3FC06D897E898F89988D20E042
:102820003FEF4FE757E40E94190318164CF5698DE6
:102830007A8D8B8D9C8D20E030E040E251E40E9447
:102840001F02DC01CB01BC01CD010E944900DC016B
:10285000CB019C8B8B8B0FC088EC90E09A8B898B83
:1028600089899A890197F1F79A8B898B8B899C8941
:1028700001979C8B8B8B8B899C89009769F714C07F
:102880006D897E898F89988D0E944900DC01CB017A
:102890009C8B8B8B8B899C89988B8F878F85988954
:1028A0000197F1F7988B8F870E94F81180932E0182
:1028B0000E94DB0C8AE990E00E94BA0B80912E0105
:1028C000882F90E00E94B80C80E090E0AAE7B4E482
:1028D0008B879C87AD87BE876B857C858D859E8524
:1028E00020E030E04AEF54E40E941F02DC01CB01FB
:1028F0008F839887A987BA876F81788589859A851C
:1029000020E030E040E85FE30E94790388232CF464
:1029100081E090E09E838D833FC06F8178858985BB
:102920009A8520E03FEF4FE757E40E9419031816FD
:102930004CF56B857C858D859E8520E030E040E2FE
:1029400051E40E941F02DC01CB01BC01CD010E94B9
:102950004900DC01CB019E838D830FC088EC90E0A1
:102960009C838B838B819C810197F1F79C838B8364
:102970008D819E8101979E838D838D819E8100979D
:1029800069F714C06F81788589859A850E9449000E
:10299000DC01CB019E838D838D819E819A83898307
:1029A00089819A810197F1F79A83898380912E0119
:1029B000882309F4EFCD0E948C1780933801809111
:1029C00038010E94E11180EA90E00E949E15DC012E
:1029D000CB0180932A0190932B01A0932C01B093FB
:1029E0002D0180912A0190912B01A0912C01B09191
:1029F0002D01BC01CD010E942B180E94F81180937B
:102A00002F0180912F01833021F080912F0185309B
:102A1000D1F680912F01833011F50E94DB0C81EB00
:102A200090E00E94BA0B81E065E00E945D0C80ECB2
:102A300090E00E94BA0B8CE3809330011092310138
:102A400082E391E00E94C11082E299E10E941C1190
:102A500090913101809130019817D0F3ACCF8091E3
:102A600038018B3209F064C00E94DB0C86EC90E0E8
:102A70000E94BA0B81E063E00E945D0C81ED90E062
:102A80000E94BA0B8FE0809330011092310182E2F4
:102A900099E10E941C1182E391E00E94C110909183
:102AA0003101809130019817D0F30E94DB0C86EC45
:102AB00090E00E94BA0B81E063E00E945D0C8BED18
:102AC00090E00E94BA0B83E08093300110923101B4
:102AD00082E299E10E941C1182E391E00E94C11000
:102AE00090913101809130019817D0F30E94DB0C56
:102AF00083EE90E00E94BA0B81E064E00E945D0CDE
:102B00008FEE90E00E94BA0B8FE08093300110921C
:102B1000310182E299E10E941C1182E391E00E945E
:102B2000C11090913101809130019817D0F343CFBB
:102B3000809138018D3209F413CD3DCFDF93CF93CF
:102B4000CDB7DEB7E4970FB6F894DEBF0FBECDBFAA
:102B50009CAB8BAB8AE58AAB8AE589AB18AA1FA62A
:102B60001BA61CA61DA61EA60E94DB0C8BA99CA959
:102B70000E94BA0B80E090E0A0EFB1E48FA398A789
:102B8000A9A7BAA76FA178A589A59AA520E030E0EA
:102B90004AEF54E40E941F02DC01CB018BA39CA3EB
:102BA000ADA3BEA36BA17CA18DA19EA120E030E0CE
:102BB00040E85FE30E94790388232CF481E090E0F1
:102BC0009AA389A33FC06BA17CA18DA19EA120E007
:102BD0003FEF4FE757E40E94190318164CF56FA119
:102BE00078A589A59AA520E030E040E251E40E9452
:102BF0001F02DC01CB01BC01CD010E944900DC01B8
:102C0000CB019AA389A30FC088EC90E098A38F8F83
:102C10008F8D98A10197F1F798A38F8F89A19AA121
:102C200001979AA389A389A19AA1009769F718C06F
:102C30006BA17CA18DA19EA10E944900DC01CB016A
:102C40009AA389A389A19AA19E8F8D8F8D8D9E8D28
:102C50000197F1F79E8F8D8F03C088A98F5F88AB96
:102C600088A9282F332727FD30958BA99CA9FC0123
:102C7000E20FF31F8081882381F788A981310CF44A
:102C800090C018AA78C081E00E94010D80E090E019
:102C9000A0EFB1E4898F9A8FAB8FBC8F698D7A8D4D
:102CA0008B8D9C8D20E030E04AEF54E40E941F029F
:102CB000DC01CB018D8B9E8BAF8BB88F6D897E89AC
:102CC0008F89988D20E030E040E85FE30E9479032F
:102CD00088232CF481E090E09C8B8B8B3FC06D8926
:102CE0007E898F89988D20E03FEF4FE757E40E945F
:102CF000190318164CF5698D7A8D8B8D9C8D20E00B
:102D000030E040E251E40E941F02DC01CB01BC0133
:102D1000CD010E944900DC01CB019C8B8B8B0FC045
:102D200088EC90E09A8B898B89899A890197F1F7D1
:102D30009A8B898B8B899C8901979C8B8B8B8B8938
:102D40009C89009769F714C06D897E898F89988D59
:102D50000E944900DC01CB019C8B8B8B8B899C8969
:102D6000988B8F878F8598890197F1F7988B8F873C
:102D700088A98F5F88AB88A9992787FD90959C01CA
:102D8000205F3F4F8BA99CA9FC01E20FF31F8081BC
:102D9000882309F078CF98A981E0692F0E945D0C03
:102DA00030C081E060E00E945D0C2BC00E94A30552
:102DB0008AAB8AA98A30F8F48BA59CA5ADA5BEA5DF
:102DC0002AE030E040E050E0BC01CD010E9437191C
:102DD0009B01AC018AA9882F90E0A0E0B0E0820FAF
:102DE000931FA41FB51F8BA79CA7ADA7BEA78AE200
:102DF0000E94CB0903C08FA581508FA78FA58F5F3D
:102E00008FA78FA5853094F20E94A30589AB80E03F
:102E100090E0A0EAB1E48B879C87AD87BE876B8585
:102E20007C858D859E8520E030E04AEF54E40E9449
:102E30001F02DC01CB018F839887A987BA876F8136
:102E4000788589859A8520E030E040E85FE30E943C
:102E5000790388232CF481E090E09E838D833FC02A
:102E60006F81788589859A8520E03FEF4FE757E4A9
:102E70000E94190318164CF56B857C858D859E85FF
:102E800020E030E040E251E40E941F02DC01CB016F
:102E9000BC01CD010E944900DC01CB019E838D83E2
:102EA0000FC088EC90E09C838B838B819C81019781
:102EB000F1F79C838B838D819E8101979E838D8307
:102EC0008D819E81009769F714C06F81788589850F
:102ED0009A850E944900DC01CB019E838D838D8100
:102EE0009E819A83898389819A810197F1F79A83D8
:102EF000898389A98D3309F087CF8BA59CA5ADA5C2
:102F0000BEA5BC01CD01E4960FB6F894DEBF0FBE9E
:102F1000CDBFCF91DF910895DF93CF93CDB7DEB7CB
:102F20002F970FB6F894DEBF0FBECDBF8FEF8F8700
:102F30000E94DB0C87EF90E00E94BA0B81E060E01A
:102F40000E945D0C86E091E00E94BA0B80E090E068
:102F5000A0EAB1E48B879C87AD87BE876B857C85B3
:102F60008D859E8520E030E04AEF54E40E941F02E8
:102F7000DC01CB018F839887A987BA876F81788519
:102F800089859A8520E030E040E85FE30E9479037C
:102F900088232CF481E090E09E838D833FC06F8175
:102FA000788589859A8520E03FEF4FE757E40E94B6
:102FB000190318164CF56B857C858D859E8520E060
:102FC00030E040E251E40E941F02DC01CB01BC0171
:102FD000CD010E944900DC01CB019E838D830FC08F
:102FE00088EC90E09C838B838B819C810197F1F727
:102FF0009C838B838D819E8101979E838D838D81A0
:103000009E81009769F714C06F81788589859A85BC
:103010000E944900DC01CB019E838D838D819E81BE
:103020009A83898389819A810197F1F79A838983A9
:103030000E94A3058F878F858B3219F08F858D3283
:10304000B9F78F852F960FB6F894DEBF0FBECDBFB0
:10305000CF91DF910895DF93CF93CDB7DEB76D9712
:103060000FB6F894DEBF0FBECDBF6A8F7B8F8C8FFB
:103070009D8F198E1D8A1E8A1F8A188E84E08C8B64
:1030800081E090E0A0E0B0E0888B998BAA8BBB8BAD
:1030900084E08C8BCAC081E090E0A0E0B0E0888B37
:1030A000998BAA8BBB8B1F8615C088899989AA89A1
:1030B000BB892AE030E040E050E0BC01CD010E9435
:1030C0003719DC01CB01888B998BAA8BBB8B8F8541
:1030D0008F5F8F878F85282F30E08C89992787FD18
:1030E0009095281739070CF38A8D9B8DAC8DBD8D7B
:1030F0008D8B9E8BAF8BB88F8D899E89AF89B88D54
:10310000288939894A895B89BC01CD010E945619F9
:10311000DA01C9018D8B9E8BAF8BB88F8D899E890B
:10312000AF89B88D2AE030E040E050E0BC01CD012D
:103130000E945619DC01CB01898F898D0E94E11113
:1031400080E090E0A0EAB1E48B879C87AD87BE87E2
:103150006B857C858D859E8520E030E04AEF54E4C8
:103160000E941F02DC01CB018F839887A987BA8751
:103170006F81788589859A8520E030E040E85FE3BB
:103180000E94790388232CF481E090E09E838D8354
:103190003FC06F81788589859A8520E03FEF4FE7B2
:1031A00057E40E94190318164CF56B857C858D85B4
:1031B0009E8520E030E040E251E40E941F02DC01E5
:1031C000CB01BC01CD010E944900DC01CB019E83F3
:1031D0008D830FC088EC90E09C838B838B819C81D6
:1031E0000197F1F79C838B838D819E8101979E834C
:1031F0008D838D819E81009769F714C06F817885DA
:1032000089859A850E944900DC01CB019E838D83CC
:103210008D819E819A83898389819A810197F1F7B3
:103220009A8389838C8981508C8B8C8988230CF0BC
:1032300032CF6D960FB6F894DEBF0FBECDBFCF91E3
:10324000DF910895DF93CF93CDB7DEB79091310131
:1032500080913001981718F00E94001105C08091EC
:1032600031018F5F80933101CF91DF910895629F8B
:10327000D001739FF001829FE00DF11D649FE00D6E
:10328000F11D929FF00D839FF00D749FF00D659FCF
:10329000F00D9927729FB00DE11DF91F639FB00DCE
:1032A000E11DF91FBD01CF0111240895A1E21A2EDD
:1032B000AA1BBB1BFD010DC0AA1FBB1FEE1FFF1FDA
:1032C000A217B307E407F50720F0A21BB30BE40B2A
:1032D000F50B661F771F881F991F1A9469F7609571
:1032E0007095809590959B01AC01BD01CF0108952B
:1032F0002F923F924F925F926F927F928F929F9206
:10330000AF92BF92CF92DF92EF92FF920F931F93F3
:10331000CF93DF93CDB7DEB7CA1BDB0B0FB6F894A4
:10332000DEBF0FBECDBF09942A88398848885F84E4
:103330006E847D848C849B84AA84B984C884DF8055
:10334000EE80FD800C811B81AA81B981CE0FD11D39
:103350000FB6F894DEBF0FBECDBFED010895FB019F
:103360009F01E8944230C4F04532B4F44A3029F465
:1033700097FB1EF4909581959F4F642F77270E94AD
:10338000E019805D8A330CF0895D8193CB01009751
:10339000A1F716F45DE251931082C9010C94D01983
:1033A000DC01FC01672F71917723E1F7329704C0AC
:1033B0007C916D9370836291AE17BF07C8F3089537
:1033C000AA1BBB1B51E107C0AA1FBB1FA617B7074B
:1033D00010F0A61BB70B881F991F5A95A9F7809567
:0C33E0009095BC01CD010895F894FFCF3A
:1033EC00506C6561736520456E7465722050617315
:1033FC0073776F72643A00506C6561736520526527
:10340C002D456E746572205468652053616D65207E
:10341C0050617373776F72643A0041636B3A2000AA
:10342C00504C5A20454E54455220504153533A204B
:10343C0000202050415353574F52454420497300AC
:10344C0057524F4E4700202020446F6F72206973F3
:10345C0000556E6C6F636B696E6700206F70656EE4
:10346C0065640020202020446F6F72206973004C2B
:10347C006F636B696E6700202B203A204F70656E6E
:10348C0020446F6F7200202D203A204368616E67D4
:10349C006520506173730000000000000000000004
:00000001FF
